{
  "_format": "hh-sol-artifact-1",
  "contractName": "Registrator",
  "sourceName": "contracts/Registrator.sol",
  "abi": [
    {
      "inputs": [],
      "stateMutability": "nonpayable",
      "type": "constructor"
    },
    {
      "anonymous": false,
      "inputs": [
        {
          "indexed": false,
          "internalType": "address",
          "name": "previousAdmin",
          "type": "address"
        },
        {
          "indexed": false,
          "internalType": "address",
          "name": "newAdmin",
          "type": "address"
        }
      ],
      "name": "AdminChanged",
      "type": "event"
    },
    {
      "anonymous": false,
      "inputs": [
        {
          "indexed": true,
          "internalType": "address",
          "name": "beacon",
          "type": "address"
        }
      ],
      "name": "BeaconUpgraded",
      "type": "event"
    },
    {
      "anonymous": false,
      "inputs": [
        {
          "indexed": false,
          "internalType": "uint8",
          "name": "version",
          "type": "uint8"
        }
      ],
      "name": "Initialized",
      "type": "event"
    },
    {
      "anonymous": false,
      "inputs": [
        {
          "indexed": false,
          "internalType": "address",
          "name": "account",
          "type": "address"
        }
      ],
      "name": "Paused",
      "type": "event"
    },
    {
      "anonymous": false,
      "inputs": [
        {
          "indexed": true,
          "internalType": "address",
          "name": "_account",
          "type": "address"
        },
        {
          "indexed": false,
          "internalType": "string",
          "name": "fingerprint",
          "type": "string"
        }
      ],
      "name": "Registered",
      "type": "event"
    },
    {
      "anonymous": false,
      "inputs": [
        {
          "indexed": true,
          "internalType": "bytes32",
          "name": "role",
          "type": "bytes32"
        },
        {
          "indexed": true,
          "internalType": "bytes32",
          "name": "previousAdminRole",
          "type": "bytes32"
        },
        {
          "indexed": true,
          "internalType": "bytes32",
          "name": "newAdminRole",
          "type": "bytes32"
        }
      ],
      "name": "RoleAdminChanged",
      "type": "event"
    },
    {
      "anonymous": false,
      "inputs": [
        {
          "indexed": true,
          "internalType": "bytes32",
          "name": "role",
          "type": "bytes32"
        },
        {
          "indexed": true,
          "internalType": "address",
          "name": "account",
          "type": "address"
        },
        {
          "indexed": true,
          "internalType": "address",
          "name": "sender",
          "type": "address"
        }
      ],
      "name": "RoleGranted",
      "type": "event"
    },
    {
      "anonymous": false,
      "inputs": [
        {
          "indexed": true,
          "internalType": "bytes32",
          "name": "role",
          "type": "bytes32"
        },
        {
          "indexed": true,
          "internalType": "address",
          "name": "account",
          "type": "address"
        },
        {
          "indexed": true,
          "internalType": "address",
          "name": "sender",
          "type": "address"
        }
      ],
      "name": "RoleRevoked",
      "type": "event"
    },
    {
      "anonymous": false,
      "inputs": [
        {
          "indexed": false,
          "internalType": "address",
          "name": "account",
          "type": "address"
        }
      ],
      "name": "Unpaused",
      "type": "event"
    },
    {
      "anonymous": false,
      "inputs": [
        {
          "indexed": true,
          "internalType": "address",
          "name": "implementation",
          "type": "address"
        }
      ],
      "name": "Upgraded",
      "type": "event"
    },
    {
      "inputs": [],
      "name": "DEFAULT_ADMIN_ROLE",
      "outputs": [
        {
          "internalType": "bytes32",
          "name": "",
          "type": "bytes32"
        }
      ],
      "stateMutability": "view",
      "type": "function"
    },
    {
      "inputs": [],
      "name": "OPERATOR_ROLE",
      "outputs": [
        {
          "internalType": "bytes32",
          "name": "",
          "type": "bytes32"
        }
      ],
      "stateMutability": "view",
      "type": "function"
    },
    {
      "inputs": [],
      "name": "PAUSER_ROLE",
      "outputs": [
        {
          "internalType": "bytes32",
          "name": "",
          "type": "bytes32"
        }
      ],
      "stateMutability": "view",
      "type": "function"
    },
    {
      "inputs": [],
      "name": "UPGRADER_ROLE",
      "outputs": [
        {
          "internalType": "bytes32",
          "name": "",
          "type": "bytes32"
        }
      ],
      "stateMutability": "view",
      "type": "function"
    },
    {
      "inputs": [],
      "name": "currentLockSize",
      "outputs": [
        {
          "internalType": "uint256",
          "name": "",
          "type": "uint256"
        }
      ],
      "stateMutability": "view",
      "type": "function"
    },
    {
      "inputs": [
        {
          "internalType": "address",
          "name": "_address",
          "type": "address"
        }
      ],
      "name": "getRegistration",
      "outputs": [
        {
          "components": [
            {
              "internalType": "uint256",
              "name": "penalty",
              "type": "uint256"
            },
            {
              "components": [
                {
                  "internalType": "uint256",
                  "name": "amount",
                  "type": "uint256"
                },
                {
                  "internalType": "uint256",
                  "name": "unlockAt",
                  "type": "uint256"
                },
                {
                  "internalType": "address",
                  "name": "unlockTo",
                  "type": "address"
                },
                {
                  "internalType": "string",
                  "name": "fingerprint",
                  "type": "string"
                }
              ],
              "internalType": "struct Registrator.Data[]",
              "name": "data",
              "type": "tuple[]"
            }
          ],
          "internalType": "struct Registrator.Registration",
          "name": "",
          "type": "tuple"
        }
      ],
      "stateMutability": "view",
      "type": "function"
    },
    {
      "inputs": [
        {
          "internalType": "bytes32",
          "name": "role",
          "type": "bytes32"
        }
      ],
      "name": "getRoleAdmin",
      "outputs": [
        {
          "internalType": "bytes32",
          "name": "",
          "type": "bytes32"
        }
      ],
      "stateMutability": "view",
      "type": "function"
    },
    {
      "inputs": [
        {
          "internalType": "bytes32",
          "name": "role",
          "type": "bytes32"
        },
        {
          "internalType": "address",
          "name": "account",
          "type": "address"
        }
      ],
      "name": "grantRole",
      "outputs": [],
      "stateMutability": "nonpayable",
      "type": "function"
    },
    {
      "inputs": [
        {
          "internalType": "bytes32",
          "name": "role",
          "type": "bytes32"
        },
        {
          "internalType": "address",
          "name": "account",
          "type": "address"
        }
      ],
      "name": "hasRole",
      "outputs": [
        {
          "internalType": "bool",
          "name": "",
          "type": "bool"
        }
      ],
      "stateMutability": "view",
      "type": "function"
    },
    {
      "inputs": [
        {
          "internalType": "address",
          "name": "_tokenAddress",
          "type": "address"
        },
        {
          "internalType": "address payable",
          "name": "_operator",
          "type": "address"
        },
        {
          "internalType": "uint256",
          "name": "_lockBlocks",
          "type": "uint256"
        },
        {
          "internalType": "uint256",
          "name": "_lockSize",
          "type": "uint256"
        }
      ],
      "name": "initialize",
      "outputs": [],
      "stateMutability": "nonpayable",
      "type": "function"
    },
    {
      "inputs": [],
      "name": "lockBlocks",
      "outputs": [
        {
          "internalType": "uint256",
          "name": "",
          "type": "uint256"
        }
      ],
      "stateMutability": "view",
      "type": "function"
    },
    {
      "inputs": [],
      "name": "pause",
      "outputs": [],
      "stateMutability": "nonpayable",
      "type": "function"
    },
    {
      "inputs": [],
      "name": "paused",
      "outputs": [
        {
          "internalType": "bool",
          "name": "",
          "type": "bool"
        }
      ],
      "stateMutability": "view",
      "type": "function"
    },
    {
      "inputs": [],
      "name": "proxiableUUID",
      "outputs": [
        {
          "internalType": "bytes32",
          "name": "",
          "type": "bytes32"
        }
      ],
      "stateMutability": "view",
      "type": "function"
    },
    {
      "inputs": [
        {
          "internalType": "address",
          "name": "_address",
          "type": "address"
        },
        {
          "internalType": "string",
          "name": "fingerprint",
          "type": "string"
        }
      ],
      "name": "register",
      "outputs": [],
      "stateMutability": "nonpayable",
      "type": "function"
    },
    {
      "inputs": [
        {
          "internalType": "bytes32",
          "name": "role",
          "type": "bytes32"
        },
        {
          "internalType": "address",
          "name": "account",
          "type": "address"
        }
      ],
      "name": "renounceRole",
      "outputs": [],
      "stateMutability": "nonpayable",
      "type": "function"
    },
    {
      "inputs": [
        {
          "internalType": "bytes32",
          "name": "role",
          "type": "bytes32"
        },
        {
          "internalType": "address",
          "name": "account",
          "type": "address"
        }
      ],
      "name": "revokeRole",
      "outputs": [],
      "stateMutability": "nonpayable",
      "type": "function"
    },
    {
      "inputs": [
        {
          "internalType": "uint256",
          "name": "_value",
          "type": "uint256"
        }
      ],
      "name": "setLockBlocks",
      "outputs": [],
      "stateMutability": "nonpayable",
      "type": "function"
    },
    {
      "inputs": [
        {
          "internalType": "uint256",
          "name": "_value",
          "type": "uint256"
        }
      ],
      "name": "setLockSize",
      "outputs": [],
      "stateMutability": "nonpayable",
      "type": "function"
    },
    {
      "inputs": [
        {
          "internalType": "address",
          "name": "_address",
          "type": "address"
        },
        {
          "internalType": "uint256",
          "name": "_value",
          "type": "uint256"
        }
      ],
      "name": "setPenalty",
      "outputs": [],
      "stateMutability": "nonpayable",
      "type": "function"
    },
    {
      "inputs": [
        {
          "internalType": "bytes4",
          "name": "interfaceId",
          "type": "bytes4"
        }
      ],
      "name": "supportsInterface",
      "outputs": [
        {
          "internalType": "bool",
          "name": "",
          "type": "bool"
        }
      ],
      "stateMutability": "view",
      "type": "function"
    },
    {
      "inputs": [],
      "name": "tokenContract",
      "outputs": [
        {
          "internalType": "contract IERC20",
          "name": "",
          "type": "address"
        }
      ],
      "stateMutability": "view",
      "type": "function"
    },
    {
      "inputs": [],
      "name": "unpause",
      "outputs": [],
      "stateMutability": "nonpayable",
      "type": "function"
    },
    {
      "inputs": [
        {
          "internalType": "address",
          "name": "_address",
          "type": "address"
        },
        {
          "internalType": "uint256",
          "name": "_upto",
          "type": "uint256"
        },
        {
          "internalType": "string",
          "name": "fingerprint",
          "type": "string"
        }
      ],
      "name": "unregister",
      "outputs": [],
      "stateMutability": "nonpayable",
      "type": "function"
    },
    {
      "inputs": [
        {
          "internalType": "address",
          "name": "newImplementation",
          "type": "address"
        }
      ],
      "name": "upgradeTo",
      "outputs": [],
      "stateMutability": "nonpayable",
      "type": "function"
    },
    {
      "inputs": [
        {
          "internalType": "address",
          "name": "newImplementation",
          "type": "address"
        },
        {
          "internalType": "bytes",
          "name": "data",
          "type": "bytes"
        }
      ],
      "name": "upgradeToAndCall",
      "outputs": [],
      "stateMutability": "payable",
      "type": "function"
    }
  ],
  "bytecode": "0x60a0604052306080523480156200001557600080fd5b506200002062000026565b620000e7565b600054610100900460ff1615620000935760405162461bcd60e51b815260206004820152602760248201527f496e697469616c697a61626c653a20636f6e747261637420697320696e697469604482015266616c697a696e6760c81b606482015260840160405180910390fd5b60005460ff90811614620000e5576000805460ff191660ff9081179091556040519081527f7f26b83ff96e1f2b6a682f133852f6798a09c465da95921460cefb38474024989060200160405180910390a15b565b608051612a026200011f600039600081816107e101528181610821015281816110fc0152818161113c01526111b40152612a026000f3fe6080604052600436106101315760003560e01c806301ffc9a714610136578063248a9ca31461016b5780632f2ff15d1461019957806330443b08146101bb57806332434a2e146101db57806336568abe146101fb5780633659cfe61461021b5780633f4ba83a1461023b578063408cd413146102505780634f1ef2861461027057806352d1902d1461028357806355a373d6146102985780635c975abb146102c657806363d83b42146102de57806372731062146102fe5780638456cb591461032b57806391d1485414610340578063a217fddf14610360578063c9c99d0614610375578063d547741f1461038c578063e63ab1e9146103ac578063eb990c59146103ce578063f3e0dfc2146103ee578063f5b541a614610405578063f72c0d8b14610427578063ff97a75414610449575b600080fd5b34801561014257600080fd5b50610156610151366004611ff9565b610469565b60405190151581526020015b60405180910390f35b34801561017757600080fd5b5061018b610186366004612023565b6104a0565b604051908152602001610162565b3480156101a557600080fd5b506101b96101b4366004612051565b6104b5565b005b3480156101c757600080fd5b506101b96101d6366004612081565b6104d6565b3480156101e757600080fd5b506101b96101f63660046120f5565b610514565b34801561020757600080fd5b506101b9610216366004612051565b610759565b34801561022757600080fd5b506101b9610236366004612149565b6107d7565b34801561024757600080fd5b506101b961089f565b34801561025c57600080fd5b506101b961026b366004612166565b6108bf565b6101b961027e3660046121d7565b6110f2565b34801561028f57600080fd5b5061018b6111a7565b3480156102a457600080fd5b5061012f546102b9906001600160a01b031681565b604051610162919061229a565b3480156102d257600080fd5b5060335460ff16610156565b3480156102ea57600080fd5b506101b96102f9366004612023565b611255565b34801561030a57600080fd5b5061031e610319366004612149565b6112cc565b60405161016291906122fe565b34801561033757600080fd5b506101b961142a565b34801561034c57600080fd5b5061015661035b366004612051565b61144a565b34801561036c57600080fd5b5061018b600081565b34801561038157600080fd5b5061018b61012e5481565b34801561039857600080fd5b506101b96103a7366004612051565b611475565b3480156103b857600080fd5b5061018b60008051602061298683398151915281565b3480156103da57600080fd5b506101b96103e93660046123a1565b611491565b3480156103fa57600080fd5b5061018b61012d5481565b34801561041157600080fd5b5061018b60008051602061296683398151915281565b34801561043357600080fd5b5061018b60008051602061292683398151915281565b34801561045557600080fd5b506101b9610464366004612023565b611638565b60006001600160e01b03198216637965db0b60e01b148061049a57506301ffc9a760e01b6001600160e01b03198316145b92915050565b60009081526097602052604090206001015490565b6104be826104a0565b6104c7816116ae565b6104d183836116b8565b505050565b6104de61173e565b6000805160206129668339815191526104f6816116ae565b506001600160a01b0390911660009081526101306020526040902055565b61051c61173e565b61012f5461012e546040516323b872dd60e01b815233600482015230602482015260448101919091526001600160a01b03909116906323b872dd906064016020604051808303816000875af1158015610579573d6000803e3d6000fd5b505050506040513d601f19601f8201168201806040525081019061059d91906123e7565b6105a657600080fd5b60288111156106105760405162461bcd60e51b815260206004820152602b60248201527f46696e6765727072696e74206d7573742068617665203430206f72206c65737360448201526a206368617261637465727360a81b60648201526084015b60405180910390fd5b6101306000846001600160a01b03166001600160a01b03168152602001908152602001600020600101604051806080016040528061012e54815260200161012d544361065c919061241f565b8152602001336001600160a01b0316815260200184848080601f0160208091040260200160405190810160405280939291908181526020018383808284376000920182905250939094525050835460018082018655948252602091829020845160049092020190815590830151938101939093555060408101516002830180546001600160a01b0319166001600160a01b039092169190911790556060810151909190600382019061070e90826124cf565b505050826001600160a01b03167fb3eccf73f39b1c07947c780b2b39df2a1bb058b4037b0a42d0881ca1a028a132838360405161074c929190612588565b60405180910390a2505050565b6001600160a01b03811633146107c95760405162461bcd60e51b815260206004820152602f60248201527f416363657373436f6e74726f6c3a2063616e206f6e6c792072656e6f756e636560448201526e103937b632b9903337b91039b2b63360891b6064820152608401610607565b6107d38282611786565b5050565b6001600160a01b037f000000000000000000000000000000000000000000000000000000000000000016300361081f5760405162461bcd60e51b8152600401610607906125b7565b7f00000000000000000000000000000000000000000000000000000000000000006001600160a01b03166108516117ed565b6001600160a01b0316146108775760405162461bcd60e51b8152600401610607906125f1565b61088081611809565b6040805160008082526020820190925261089c91839190611821565b50565b6000805160206129868339815191526108b7816116ae565b61089c61198c565b6108c761173e565b600083116109255760405162461bcd60e51b815260206004820152602560248201527f5570546f20706172616d65746572206d75737420626520677265617465722074604482015264068616e20360dc1b6064820152608401610607565b6001600160a01b03841660009081526101306020526040812060010154849190819081906001600160401b03811115610960576109606121c1565b604051908082528060200260200182016040528015610989578160200160208202803683370190505b50905060005b6001600160a01b03891660009081526101306020526040902060010154811015610c7f576001600160a01b0389166000908152610130602052604090206001018054439190839081106109e4576109e461262b565b906000526020600020906004020160010154108015610a4e57506001600160a01b038916600090815261013060205260409020600101805433919083908110610a2f57610a2f61262b565b60009182526020909120600260049092020101546001600160a01b0316145b8015610ae557508686604051602001610a68929190612641565b60408051601f1981840301815291815281516020928301206001600160a01b038c1660009081526101309093529120600101805483908110610aac57610aac61262b565b9060005260206000209060040201600301604051602001610acd9190612651565b60405160208183030381529060405280519060200120145b15610c6d578415610c6d576001600160a01b038916600090815261013060205260409020600101805486919083908110610b2157610b2161262b565b9060005260206000209060040201600001541115610ba5576001600160a01b038916600090815261013060205260409020600101805486919083908110610b6a57610b6a61262b565b90600052602060002090600402016000016000828254610b8a91906126c7565b90915550610b9a9050858561241f565b935060009450610c6d565b6001600160a01b038916600090815261013060205260409020600101805482908110610bd357610bd361262b565b90600052602060002090600402016000015485610bf091906126c7565b6001600160a01b038a1660009081526101306020526040902060010180549196509082908110610c2257610c2261262b565b90600052602060002090600402016000015484610c3f919061241f565b935080828481518110610c5457610c5461262b565b602090810291909101015282610c69816126da565b9350505b80610c77816126da565b91505061098f565b5060008311610cc75760405162461bcd60e51b8152602060048201526014602482015273139bc81d5b9b1bd8dad8589b195cc8199bdd5b9960621b6044820152606401610607565b61012f546040516370a0823160e01b815284916001600160a01b0316906370a0823190610cf890309060040161229a565b602060405180830381865afa158015610d15573d6000803e3d6000fd5b505050506040513d601f19601f82011682018060405250810190610d3991906126f3565b1015610d935760405162461bcd60e51b815260206004820152602360248201527f496e73756666696369656e7420636f6e747261637420746f6b656e2062616c616044820152626e636560e81b6064820152608401610607565b61012f5460405163a9059cbb60e01b8152336004820152602481018590526001600160a01b039091169063a9059cbb906044016020604051808303816000875af1158015610de5573d6000803e3d6000fd5b505050506040513d601f19601f82011682018060405250810190610e0991906123e7565b610e4d5760405162461bcd60e51b8152602060048201526015602482015274151bdad95b881d1c985b9cd9995c8819985a5b1959605a1b6044820152606401610607565b6000805b8381101561109657600082848381518110610e6e57610e6e61262b565b6020026020010151610e8091906126c7565b6001600160a01b038c16600090815261013060205260409020600101549091508110610ee45760405162461bcd60e51b8152602060048201526013602482015272496e646578206f7574206f6620626f756e647360681b6044820152606401610607565b805b6001600160a01b038c16600090815261013060205260409020600190810154610f0f91906126c7565b811015611006576001600160a01b038c16600090815261013060205260409020600190810190610f4090839061241f565b81548110610f5057610f5061262b565b906000526020600020906004020161013060008e6001600160a01b03166001600160a01b031681526020019081526020016000206001018281548110610f9857610f9861262b565b6000918252602090912082546004909202019081556001808301549082015560028083015490820180546001600160a01b0319166001600160a01b03909216919091179055600380820190610fef9084018261270c565b509050508080610ffe906126da565b915050610ee6565b506001600160a01b038b16600090815261013060205260409020600101805480611032576110326127d8565b600082815260208120600460001990930192830201818155600181018290556002810180546001600160a01b0319169055906110716003830182611f49565b505090558261107f816126da565b93505050808061108e906126da565b915050610e51565b506001600160a01b0389166000908152610130602052604081206001015490036110e7576001600160a01b038916600090815261013060205260408120818155906110e46001830182611f83565b50505b505050505050505050565b6001600160a01b037f000000000000000000000000000000000000000000000000000000000000000016300361113a5760405162461bcd60e51b8152600401610607906125b7565b7f00000000000000000000000000000000000000000000000000000000000000006001600160a01b031661116c6117ed565b6001600160a01b0316146111925760405162461bcd60e51b8152600401610607906125f1565b61119b82611809565b6107d382826001611821565b6000306001600160a01b037f000000000000000000000000000000000000000000000000000000000000000016146112425760405162461bcd60e51b815260206004820152603860248201527f555550535570677261646561626c653a206d757374206e6f742062652063616c6044820152771b1959081d1a1c9bdd59da0819195b1959d85d1958d85b1b60421b6064820152608401610607565b5060008051602061294683398151915290565b61125d61173e565b600080516020612966833981519152611275816116ae565b600082116112c55760405162461bcd60e51b815260206004820181905260248201527f4c6f636b206475726174696f6e2068617320746f206265206e6f6e2d7a65726f6044820152606401610607565b5061012d55565b6040805180820190915260008152606060208201526001600160a01b03821660009081526101306020908152604080832081518083018352815481526001820180548451818702810187019095528085529195929486810194939192919084015b8282101561141c57600084815260209081902060408051608081018252600486029092018054835260018101549383019390935260028301546001600160a01b03169082015260038201805491929160608401919061138b90612432565b80601f01602080910402602001604051908101604052809291908181526020018280546113b790612432565b80156114045780601f106113d957610100808354040283529160200191611404565b820191906000526020600020905b8154815290600101906020018083116113e757829003601f168201915b5050505050815250508152602001906001019061132d565b505050915250909392505050565b600080516020612986833981519152611442816116ae565b61089c6119d8565b60009182526097602090815260408084206001600160a01b0393909316845291905290205460ff1690565b61147e826104a0565b611487816116ae565b6104d18383611786565b600054610100900460ff16158080156114b15750600054600160ff909116105b806114d257506114c030611a15565b1580156114d2575060005460ff166001145b6115355760405162461bcd60e51b815260206004820152602e60248201527f496e697469616c697a61626c653a20636f6e747261637420697320616c72656160448201526d191e481a5b9a5d1a585b1a5e995960921b6064820152608401610607565b6000805460ff191660011790558015611558576000805461ff0019166101001790555b61012f80546001600160a01b0319166001600160a01b03871617905561012d83905561012e829055611588611a24565b611590611a53565b611598611a53565b6115a36000336116b8565b6115bb600080516020612986833981519152336116b8565b6115d3600080516020612926833981519152336116b8565b6115eb600080516020612966833981519152856116b8565b8015611631576000805461ff0019169055604051600181527f7f26b83ff96e1f2b6a682f133852f6798a09c465da95921460cefb38474024989060200160405180910390a15b5050505050565b61164061173e565b600080516020612966833981519152611658816116ae565b600082116116a75760405162461bcd60e51b815260206004820152601c60248201527b4c6f636b2073697a652068617320746f206265206e6f6e2d7a65726f60201b6044820152606401610607565b5061012e55565b61089c8133611a7a565b6116c2828261144a565b6107d35760008281526097602090815260408083206001600160a01b03851684529091529020805460ff191660011790556116fa3390565b6001600160a01b0316816001600160a01b0316837f2f8788117e7eff1d82e926ec794901d17c78024a50270940304540a733656f0d60405160405180910390a45050565b60335460ff16156117845760405162461bcd60e51b815260206004820152601060248201526f14185d5cd8589b194e881c185d5cd95960821b6044820152606401610607565b565b611790828261144a565b156107d35760008281526097602090815260408083206001600160a01b0385168085529252808320805460ff1916905551339285917ff6391f5c32d9c69d2a47ea670b442974b53935d1edc7fd64eb21e047a839171b9190a45050565b600080516020612946833981519152546001600160a01b031690565b6000805160206129268339815191526107d3816116ae565b7f4910fdfa16fed3260ed0e7147f7cc6da11a60208b5b9406d12a635614ffd91435460ff1615611854576104d183611ad3565b826001600160a01b03166352d1902d6040518163ffffffff1660e01b8152600401602060405180830381865afa9250505080156118ae575060408051601f3d908101601f191682019092526118ab918101906126f3565b60015b6119115760405162461bcd60e51b815260206004820152602e60248201527f45524331393637557067726164653a206e657720696d706c656d656e7461746960448201526d6f6e206973206e6f74205555505360901b6064820152608401610607565b60008051602061294683398151915281146119805760405162461bcd60e51b815260206004820152602960248201527f45524331393637557067726164653a20756e737570706f727465642070726f786044820152681a58589b195555525160ba1b6064820152608401610607565b506104d1838383611b6d565b611994611b98565b6033805460ff191690557f5db9ee0a495bf2e6ff9c91a7834c1ba4fdd244a5e8aa4e537bd38aeae4b073aa335b6040516119ce919061229a565b60405180910390a1565b6119e061173e565b6033805460ff191660011790557f62e78cea01bee320cd4e420270b5ea74000d11b0c9f74754ebdbfc544b05a2586119c13390565b6001600160a01b03163b151590565b600054610100900460ff16611a4b5760405162461bcd60e51b8152600401610607906127ee565b611784611be1565b600054610100900460ff166117845760405162461bcd60e51b8152600401610607906127ee565b611a84828261144a565b6107d357611a9181611c14565b611a9c836020611c26565b604051602001611aad929190612839565b60408051601f198184030181529082905262461bcd60e51b8252610607916004016128a8565b611adc81611a15565b611b3e5760405162461bcd60e51b815260206004820152602d60248201527f455243313936373a206e657720696d706c656d656e746174696f6e206973206e60448201526c1bdd08184818dbdb9d1c9858dd609a1b6064820152608401610607565b60008051602061294683398151915280546001600160a01b0319166001600160a01b0392909216919091179055565b611b7683611dc8565b600082511180611b835750805b156104d157611b928383611e08565b50505050565b60335460ff166117845760405162461bcd60e51b815260206004820152601460248201527314185d5cd8589b194e881b9bdd081c185d5cd95960621b6044820152606401610607565b600054610100900460ff16611c085760405162461bcd60e51b8152600401610607906127ee565b6033805460ff19169055565b606061049a6001600160a01b03831660145b60606000611c358360026128bb565b611c4090600261241f565b6001600160401b03811115611c5757611c576121c1565b6040519080825280601f01601f191660200182016040528015611c81576020820181803683370190505b509050600360fc1b81600081518110611c9c57611c9c61262b565b60200101906001600160f81b031916908160001a905350600f60fb1b81600181518110611ccb57611ccb61262b565b60200101906001600160f81b031916908160001a9053506000611cef8460026128bb565b611cfa90600161241f565b90505b6001811115611d72576f181899199a1a9b1b9c1cb0b131b232b360811b85600f1660108110611d2e57611d2e61262b565b1a60f81b828281518110611d4457611d4461262b565b60200101906001600160f81b031916908160001a90535060049490941c93611d6b816128d2565b9050611cfd565b508315611dc15760405162461bcd60e51b815260206004820181905260248201527f537472696e67733a20686578206c656e67746820696e73756666696369656e746044820152606401610607565b9392505050565b611dd181611ad3565b6040516001600160a01b038216907fbc7cd75a20ee27fd9adebab32041f755214dbc6bffa90cc0225b39da2e5c2d3b90600090a250565b6060611dc183836040518060600160405280602781526020016129a6602791396060600080856001600160a01b031685604051611e4591906128e9565b600060405180830381855af49150503d8060008114611e80576040519150601f19603f3d011682016040523d82523d6000602084013e611e85565b606091505b5091509150611e9686838387611ea0565b9695505050505050565b60608315611f0d578251600003611f0657611eba85611a15565b611f065760405162461bcd60e51b815260206004820152601d60248201527f416464726573733a2063616c6c20746f206e6f6e2d636f6e74726163740000006044820152606401610607565b5081611f17565b611f178383611f1f565b949350505050565b815115611f2f5781518083602001fd5b8060405162461bcd60e51b815260040161060791906128a8565b508054611f5590612432565b6000825580601f10611f65575050565b601f01602090049060005260206000209081019061089c9190611fa4565b508054600082556004029060005260206000209081019061089c9190611fbd565b5b80821115611fb95760008155600101611fa5565b5090565b80821115611fb9576000808255600182018190556002820180546001600160a01b0319169055611ff06003830182611f49565b50600401611fbd565b60006020828403121561200b57600080fd5b81356001600160e01b031981168114611dc157600080fd5b60006020828403121561203557600080fd5b5035919050565b6001600160a01b038116811461089c57600080fd5b6000806040838503121561206457600080fd5b8235915060208301356120768161203c565b809150509250929050565b6000806040838503121561209457600080fd5b823561209f8161203c565b946020939093013593505050565b60008083601f8401126120bf57600080fd5b5081356001600160401b038111156120d657600080fd5b6020830191508360208285010111156120ee57600080fd5b9250929050565b60008060006040848603121561210a57600080fd5b83356121158161203c565b925060208401356001600160401b0381111561213057600080fd5b61213c868287016120ad565b9497909650939450505050565b60006020828403121561215b57600080fd5b8135611dc18161203c565b6000806000806060858703121561217c57600080fd5b84356121878161203c565b93506020850135925060408501356001600160401b038111156121a957600080fd5b6121b5878288016120ad565b95989497509550505050565b634e487b7160e01b600052604160045260246000fd5b600080604083850312156121ea57600080fd5b82356121f58161203c565b915060208301356001600160401b038082111561221157600080fd5b818501915085601f83011261222557600080fd5b813581811115612237576122376121c1565b604051601f8201601f19908116603f0116810190838211818310171561225f5761225f6121c1565b8160405282815288602084870101111561227857600080fd5b8260208601602083013760006020848301015280955050505050509250929050565b6001600160a01b0391909116815260200190565b60005b838110156122c95781810151838201526020016122b1565b50506000910152565b600081518084526122ea8160208601602086016122ae565b601f01601f19169290920160200192915050565b6000602080835260608084018551838601528286015160408081880152828251808552608094508489019150848160051b8a0101878501945060005b82811015612392578a8203607f19018452855180518352898101518a840152858101516001600160a01b03168684015288015188830188905261237f888401826122d2565b968a0196948a019492505060010161233a565b509a9950505050505050505050565b600080600080608085870312156123b757600080fd5b84356123c28161203c565b935060208501356123d28161203c565b93969395505050506040820135916060013590565b6000602082840312156123f957600080fd5b81518015158114611dc157600080fd5b634e487b7160e01b600052601160045260246000fd5b8082018082111561049a5761049a612409565b600181811c9082168061244657607f821691505b60208210810361246657634e487b7160e01b600052602260045260246000fd5b50919050565b601f8211156104d157600081815260208120601f850160051c810160208610156124935750805b601f850160051c820191505b818110156124b25782815560010161249f565b505050505050565b600019600383901b1c191660019190911b1790565b81516001600160401b038111156124e8576124e86121c1565b6124fc816124f68454612432565b8461246c565b602080601f83116001811461252b57600084156125195750858301515b61252385826124ba565b8655506124b2565b600085815260208120601f198616915b8281101561255a5788860151825594840194600190910190840161253b565b50858210156125785787850151600019600388901b60f8161c191681555b5050505050600190811b01905550565b60208152816020820152818360408301376000818301604090810191909152601f909201601f19160101919050565b6020808252602c9082015260008051602061290683398151915260408201526b19195b1959d85d1958d85b1b60a21b606082015260800190565b6020808252602c9082015260008051602061290683398151915260408201526b6163746976652070726f787960a01b606082015260800190565b634e487b7160e01b600052603260045260246000fd5b8183823760009101908152919050565b600080835461265f81612432565b60018281168015612677576001811461268c576126bb565b60ff19841687528215158302870194506126bb565b8760005260208060002060005b858110156126b25781548a820152908401908201612699565b50505082870194505b50929695505050505050565b8181038181111561049a5761049a612409565b6000600182016126ec576126ec612409565b5060010190565b60006020828403121561270557600080fd5b5051919050565b818103612717575050565b6127218254612432565b6001600160401b03811115612738576127386121c1565b612746816124f68454612432565b6000601f82116001811461277457600083156127625750848201545b61276c84826124ba565b855550611631565b600085815260209020601f19841690600086815260209020845b838110156127ae578286015482556001958601959091019060200161278e565b50858310156125785793015460001960f8600387901b161c19169092555050600190811b01905550565b634e487b7160e01b600052603160045260246000fd5b6020808252602b908201527f496e697469616c697a61626c653a20636f6e7472616374206973206e6f74206960408201526a6e697469616c697a696e6760a81b606082015260800190565b76020b1b1b2b9b9a1b7b73a3937b61d1030b1b1b7bab73a1604d1b81526000835161286b8160178501602088016122ae565b7001034b99036b4b9b9b4b733903937b6329607d1b601791840191820152835161289c8160288401602088016122ae565b01602801949350505050565b602081526000611dc160208301846122d2565b808202811582820484141761049a5761049a612409565b6000816128e1576128e1612409565b506000190190565b600082516128fb8184602087016122ae565b919091019291505056fe46756e6374696f6e206d7573742062652063616c6c6564207468726f75676820189ab7a9244df0848122154315af71fe140f3db0fe014031783b0946b8c9d2e3360894a13ba1a3210667c828492db98dca3e2076cc3735a920a3ca505d382bbc97667070c54ef182b0f5858b034beac1b6f3089aa2d3188bb1e8929f4fa9b92965d7a28e3265b37a6474929f336521b332c1681b933f6cb9f3376673440d862a416464726573733a206c6f772d6c6576656c2064656c65676174652063616c6c206661696c6564a26469706673582212208c4c986f8faed7fe822393c9846c6da3a951829e03d3ca1519cc39981bf3eb9864736f6c63430008130033",
  "linkReferences": {},
  "deployedLinkReferences": {}
}